:020000020000FC
:1000000012C0189518951895189518951895189563
:100010001895189518951895189518951895189578
:100020001895189518950FE50DBF04E00EBF03E075
:1000300008BB0FEF01BB11E0B09B05C0B19B07C02F
:10004000B29B0FC0F9CFB09BFECF17D0F5CFB19BBD
:10005000FECF1BD02A95229502B30F70022B02BB54
:10006000EBCFB29BFECF02B3007F012B02BB1395F7
:100070001A3009F0E1CF1127DFCFE199FECF4EBB57
:100080003FBB1DBBE29AE19A0895E199FECF4EBBBA
:080090003FBBE09A2DB3089577
:00000001FF
