:020000020000FC
:1000000050C0189518951895189518950CC0189506
:10001000189521C018951895189518951895189544
:1000200018951895189513951A3009F018951127F9
:1000300023952A3009F01895222733953A3009F094
:100040001895332743954A3009F018951127222730
:10005000332744271895F0E0EEEE603031F0613040
:1000600051F0623079F06330A1F0639555BBE10F38
:10007000C89502BA18956395550F55BBE20FC89500
:1000800002BA18956395550F55BBE30FC89502BA90
:100090001895550F55BBE40FC89502BA662751E075
:1000A00018950FE50DBF04E00EBF0FEF01BB02BBBB
:1000B0000FE004BB03E008BB01E109BF03E003BF9D
:1000C00008E00EBD04EF0BBD04E20ABD789451E0D8
:1000D000B09B03C0B19B06C0FBCFB09BFECF03E03B
:1000E0000EBDF6CFB19BFECF00E00EBDF1CFC0F943
:0800F000A4B0999282F88090FF
:00000001FF
