:020000020000FC
:1000000012C0189518951895189518951895189563
:100010001895189518951895189518951895189578
:100020001895189518950FE50DBF04E00EBF0FE069
:1000300002BB00EE07BB08BB0FEF04BB11D02030A2
:10004000E9F301C0FBCF0027F0E0EEEA05910F3F96
:10005000A9F3201711F00591F9CF049105BBEECF5C
:1000600013E02FED08B3006E022308BB0000000070
:10007000000000000000000000000000809B0BC09A
:10008000819B0CC0829B0DC0839B0EC0221F1A95C2
:1000900049F722270895207E21600895207E22605E
:1000A0000895207E23600895207E24600895C10174
:1000B000A1026103C204A2056206C307A308630983
:0800C000C40AA400640BFF0058
:00000001FF
