:020000020000FC
:1000000012C0189518951895189518951895189563
:100010001895189518951895189518951895189578
:100020001895189518950FE50DBF04E00EBF0FEF5A
:1000300007BB07E002BB809B03C0819B0FC0FBCFC7
:10004000809BFECF33953130B9F401E1079517D08D
:1000500008BB809BF5CF819B01C0F8CF819BFECF71
:100060003395313049F401E1001F09D008BB819B71
:10007000F5CF809BE5CFF8CF332738BBDCCF1FEF20
:0E0080002FEF1A95F1F71FEF2A95D9F7089583
:00000001FF
