:020000020000FC
:100000001FC0189518951895189518951895189556
:1000100018951895189507C00AC008C01895189526
:100020001895189518950CB105BB1895189505915C
:10003000003011F00CB9189508ED0AB9189418950C
:100040000FE50DBF04E00EBF0FE004BB09E109B9E5
:1000500000E000BD08ED0AB906E800BD7894ECE6C2
:10006000F0E008EF0AB909F0FCCFFFCF454E544548
:1000700052204E554D4245522028302D39293A0DF7
:0200800000007E
:00000001FF
