:1000000014C02DC02BC02AC065C028C03BC026C06C
:1000100025C024C023C022C021C020C01FC01EC0D4
:100020001DC01CC01BC01AC019C011241FBECFEDBB
:10003000CDBF10E0A0E6B0E0E6E9F4E002C0059034
:100040000D92A436B107D9F710E0A4E6B0E001C0E4
:100050001D92AF36B107E1F794D11BC2D1CF1F92E9
:100060000F920FB60F9211248F93809168008636FD
:1000700019F083E3809368008F910F900FBE0F906B
:100080001F9018951F920F920FB60F9211248F9305
:100090009F9380916700883C20F48F5F8093670076
:1000A00012C080916500882319F088B392E002C0E5
:1000B00088B391E0892788BB109267008091640023
:1000C0008F5F809364009F918F910F900FBE0F9070
:1000D0001F9018951F920F920FB60F9211241DBCFE
:1000E0001CBC0F900FBE0F901F9018950F931F937D
:1000F000CF93DF9383E085BF80E48BBF97E29BBD06
:1001000090E19ABD92E499BF8FBD88E08EBD11BA8F
:1001100084E782BB8BE087BB82E088BB81E090E014
:10012000A2D180936D008F3F81F481E090E063E085
:10013000A2D182E090E061E09ED183E090E062E0B5
:100140009AD184E090E061E096D1C1E0D0E009E688
:1001500010E0CE0188D1F80181938F012196F0E063
:10016000C530DF07B1F780E090E07DD18093680073
:10017000863621F4C09A81E08EBD03C089E9809360
:100180006800DF91CF911F910F91089583E083BFA5
:10019000089513BE089581E08EBD08951EBCC398D6
:1001A0000895FF920F931F93CF93DF9303E0FF24F3
:1001B000F39412E003BF30E020E05FC084991DC0DB
:1001C0008FE493EC0197F1F700C00000849B15C009
:1001D00040916500822F90E0423029F487599F4F6B
:1001E000DC01FC9207C087599F4FFC018081813060
:1001F00009F031E0109264002F5F85991DC08FE4F3
:1002000093EC0197F1F700C00000859B15C0409169
:100210006500822F90E0423029F487599F4FDC011E
:100220004C9307C087599F4FFC018081823009F0B1
:1002300031E0109264002F5F86991DC08FE493EC2B
:100240000197F1F700C00000869B15C04091650042
:10025000822F90E0423029F487599F4FDC010C93A4
:1002600007C087599F4FFC018081833009F031E03E
:10027000109264002F5F243028F48091640086304F
:1002800009F09CCF313021F080916400863091F4E8
:1002900080916500823071F080916800863619F493
:1002A000C09A81E08EBD109264001092650013BE6A
:1002B000C19A61C03323A9F480916500813089F42B
:1002C000109365001092640013BE8EBD8FE799EA0B
:1002D000A3E081509040A040E1F700C000005EDF45
:1002E00069CF809165008230D1F5809164008630BD
:1002F000A9F4109265001092640013BEC19AC1E087
:10030000D0E009E610E0CE01AED0D8018D938D018A
:100310002196B0E0C530DB07B1F72DC081E08EBD7E
:100320008FE799EAA3E081509040A040E1F700C038
:10033000000034DF109265001092640013BEC19A71
:1003400009E610E0C1E0D0E0D8016D918D01CE0149
:1003500092D02196B0E00D361B07B1F70CC0109279
:10036000640013BE80E090E069E985D089E980935C
:100370006800C09813DFDF91CF911F910F91FF901C
:1003800008950F931F93B2DE789411E009E98099E4
:1003900005C0C098C19802DF10936600809B0DC015
:1003A00080916600813049F410926600C19A909164
:1003B0006800963611F4C09A8EBD829B18C0809159
:1003C00068008333A1F48FE493EC0197F1F700C048
:1003D0000000829B0AC0C09A1EBD80E090E066E6E5
:1003E0004AD086E68093680002C000936800849932
:1003F0000EC08FE493EC0197F1F700C00000849BDE
:1004000006C080916800863611F4C8DECADE859980
:1004100011C08FE493EC0197F1F700C00000859BB9
:1004200009C080916800863629F0809B03C0109334
:100430006500B7DE8699ABCF8FE493EC0197F1F7B7
:1004400000C0000006C0C19A80916800863609F499
:10045000C09A809902C0869BF6CF869B98CF809BDE
:1004600096CF9CDE94CFE199FECF1FBA8EBBE09A67
:1004700099278DB30895262FE199FECF1CBA1FBA94
:100480008EBB2DBB0FB6F894E29AE19A0FBE01968F
:060490000895F894FFCF6F
:04049600030102015B
:00000001FF
