:020000020000FC
:1000000028C018951895189518951895189518954D
:10001000189509C01895189518951895189518955C
:10002000189518951895223039F0E10FC89502BA45
:100030001395183051F01895E10FC89502BA1A952A
:10004000103029F01F3F19F0189510E0189518E0AE
:1000500018950FE50DBF04E00EBF0FE001BB0FE0E8
:1000600002BB07E008BB01E009BF7894F0E0E8EAD2
:10007000B29B05C0B09B09C0B19B0DC0F7CFB29B2E
:10008000FECF00E003BF2227F1CFB09BFECF21E0DF
:1000900005E003BFEBCFB19BFECF213019F018E094
:1000A00005E003BF22E0E2CF0E0C0D090B030706AB
:0200B0000E0040
:00000001FF
