:020000020000FC
:1000000035C011C01895189518951895189518951C
:100010001895189518951895189518951895189578
:100020001895189518951395123059F0133071F0F2
:10003000143089F01530A1F001E00BBD08E30ABDD2
:10004000189501E00BBD07E70ABD189501E00BBD4F
:1000500005EB0ABD189501E00BBD04EF0ABD18952C
:1000600000E00BBD0AEF0ABD112718950FE50DBF83
:1000700004E00EBF02E007BB02E005BF00E40BBFD7
:1000800003E107BD07E806BD02E80FBD0AE10EBDAA
:040090007894FFCF92
:00000001FF
